:020000040000fa
:10000000f0ff0320f9060000370d0000390d000055
:100010003d0d00003f0d0000410d000000000000fc
:10002000000000000000000000000000030d0000c0
:100030003b0d000000000000030d0000030d000058
:10004000030d0000030d0000030d0000030d000070
:10005000030d0000030d0000030d0000030d000060
:10006000030d0000030d0000030d0000030d000050
:10007000030d0000030d0000030d0000030d000040
:10008000030d0000030d0000030d0000030d000030
:10009000030d0000030d0000030d0000030d000020
:1000a000030d0000030d0000030d0000030d000010
:1000b000030d0000030d0000030d0000250d0000de
:1000c000030d0000030d0000030d0000030d0000f0
:1000d000030d0000030d0000030d0000030d0000e0
:1000e000030d0000030d00000000000000000000f0
:1000f00000000000030d0000030d0000030d0000d0
:10010000030d0000030d00008102000081020000c9
:100110008102000081020000030d0000030d0000b9
:10012000030d0000030d0000030d0000030d00008f
:10013000030d0000030d0000030d0000030d00007f
:10014000030d0000030d0000030d0000030d00006f
:10015000030d0000030d000000000000000000007f
:10016000000000000000000000000000000000008f
:100170000000000000000000030d0000030d00005f
:10018000030d0000030d0000030d0000030d00002f
:1001900000000000030d0000030d0000030d00002f
:1001a000030d0000030d0000030d0000030d00000f
:1001b000030d0000030d0000030d0000030d0000ff
:1001c000030d0000030d0000030d0000030d0000ef
:1001d000030d0000030d0000030d0000030d0000df
:1001e000030d0000030d0000030d0000190b0000bb
:1001f000030d0000030d0000030d0000030d0000bf
:10020000030d00000000000000000000030d0000ce
:10021000030d0000030d0000030d0000030d00009e
:10022000030d0000030d0000030d0000030d00008e
:10023000030d0000030d0000030d0000030d00007e
:10024000030d0000030d0000030d0000030d00006e
:10025000030d0000030d0000030d0000030d00005e
:020000040000fa
:10026000f8b500bff8bc08bc9e467047610a0000a4
:10027000f8b500bff8bc08bc9e4670473d0a0000b8
:020000040000fa
:10028000524b586a524b9b7d002b00f09d8070b5fd
:100290004f494c6804f007044c4b5a699d699e68ad
:1002a0000b7e13f0040f56d0896a484bdb689342eb
:1002b00051d9002c41d1454b5b6899540132444bd4
:1002c0001b7e13f0010f15d0414b012119753f4bd7
:1002d0009b68ab4255d93d4b1b68595d3c4b9962bd
:1002e00001353a4b1b690bb9b54263d0374bdb681c
:1002f000934263d0354b5a619d61354b1b7e13f0a1
:10030000020f13d0334b1b78b3b1304bdb689342f1
:100310000fd12e4b00221a772d4907240c752d4939
:100320000a701b6a43b1294b1b6a9847294b1b78fb
:1003300013b1274b02229a7570bd244b5b6823f8da
:1003400012100132224b1b7e13f0010fd2d0204b32
:100350000121197509e01e4b1b7e13f0010fc9d056
:100360001b4b01211975002cb1d0184b9b68ab4277
:1003700013d9164b1b6833f81510154b99620135cc
:10038000afe7124b1b69002babd0114bff219962d9
:100390000e490b69013b0b61a3e70c4b1b69002b5a
:1003a0009fd00b4b4ff6ff71996208490b69013bd7
:1003b0000b6196e7074b012119709be7044b012164
:1003c00099750421197595e7704700bfd00d00207d
:0803d00000340040600e002023
:020000040000fa
:1003d800364b00221a7403f50063354a9a621a46ae
:1003e800536813f0100ffbd1324b4222c3f884201c
:1003f8001a4600bfd2f8843013f0400ffad02e4bc3
:1004080000229a632d4a5a631a46d36b13f0040fdd
:10041800fbd1294b022283f830201a46d36b13f004
:10042800020ffbd1244a136c03f00303032bfad108
:10043800234b01225a711a46d37813f0010ffbd0cf
:100448001c4b204a1a621a46536813f0040ffbd15a
:10045800184b1d4a5a621a46536813f0080ffbd10d
:10046800144b1a4ada621a46536813f0200ffbd16c
:10047800104b4322c3f8a0201a4600bfd2f8a03080
:1004880013f0400ffad00b4b4122c3f8a4201a46b0
:10049800d2f8a43013f0400ffad0094b6ff07f4226
:1004a8001a614ef2ff725a61704700bf0014004093
:1004b80006013000001c00400010004064001f00ce
:1004c80000080040070101000701020007010400bd
:020000040000fa
:1004d80070b40401354d25442d7b04f1824404f5a4
:1004e800204494f84e4014f0030f02d1edb2002dd1
:1004f80055d1040104f1824505f52045032685f808
:100508004e602a4d254401262e73294d2c5b14f488
:10051800806f19bfc91805eb0014254c04eb0014b3
:1005280061600101224c615a11f4006f27d01a440e
:1005380004eb00118a601e4902018c18895a9bb28b
:10054800c1f301210b419bb2638002f1824303f5a1
:1005580020431a6c42f002021a641a6c12f4fe4f1d
:100568001fd193f8463013f0400f1dd111490c6983
:10057800012202fa00f323430b61104612e00d49f1
:10058800498811f4404f04d1094901eb00118a60f0
:10059800d1e71168064a02eb00129160cbe7002010
:1005a80000e0012070bc70470120fbe7280e002006
:0805b800180e002000a0004114
:020000040000fa
:1005c000fc0d00204c00000000000000600e002028
:1005d0000100000000000000d00d00202c000000f1
:1005e00000000000480e002008000000000000008d
:1005f000610e00200100000000000000000000204b
:10060000800d000000000000500e002004000000db
:1006100000000000620e0020010000000000000049
:10062000540e00200400000000000000630e0020b3
:10063000020000000100000002020000580e00202d
:100640000400000000000000800d002050000000a9
:10065000000000005c0e002004000000000000000c
:10066000000000000000000066666666666666665a
:020000040000fa
:100670001f4ad36823f4e0631b041b0c43f0bf63e1
:1006800043f40033d360bff35f8f62b6194be021b0
:1006900083f81f134ff00040186083f832134ff4b3
:1006a0008020586083f833134ff40020586083f89b
:1006b00034134ff48010586083f835134ff4001052
:1006c000586083f86b134ff40061d960536a43f4a8
:1006d00080235362536943f010035361536a43f418
:1006e00000335362536a43f480335362704700bf50
:0806f00000ed00e000e100e074
:020000040000fa
:1006f80008b5194b9847194b9847eff3108172b614
:10070800174ad2f8883043f47003c2f88830bff330
:100718004f8fbff36f8f01b962b6124a936823f007
:10072800010393601346da6812f0010ffbd10d4bf9
:1007380024225a6001229a6000f09cf90a4b23f0a7
:100748007f03074a9360094b9847094b9847094b21
:10075800984700f063fafee7430d0000430d0000e0
:1007680000ed00e0006000410000000045090000c5
:08077800430d0000430d0000d9
:020000040000fa
:1007800010b582b000230193030103f1824303f506
:10079000204393f84e30dbb20193019b13f0020f1c
:1007a0000dd0010101f1824202f52042022382f8bc
:1007b0004e30134b0b4400221a73012400e0022434
:1007c000019b13f0010f0cd0010101f1824202f5ef
:1007d0002042012382f84e30094b0b4400221a7349
:1007e0000224074b03eb00135b6833b1044a02ebae
:1007f000001399685b682046984702b010bd00bf9f
:04080000280e00209e
:020000040000fa
:100804008f2839d870b400eb40001c4d05ebc005af
:100814006e1e072042fa00f404f00104002c14bff9
:10082400f824e02406f8014f0138b0f1ff3ff1d17c
:10083400ec1d072241fa02f000f00100002814bf69
:10084400f820e02004f8010f013ab2f1ff3ff1d1a2
:1008540005f10f00072200bf43fa02f101f0010184
:10086400002914bff821e02100f8011f013ab2f178
:10087400ff3ff1d170bc7047704700bf00000020fb
:020000040000fa
:1008840008b5124b1b78f3b100f01cfa104a136838
:10089400013313600f4aa2fb03239b090e4a11780c
:1008a40081420bd00d4a12689a1a312a08d90c4a8f
:1008b4001170094a1070094a136001e0074a136075
:1008c400054b187808bd0220fce700bf620e00202b
:1008d400540e0020d34d6210630e0020500e0020f1
:0408e400640e00207e
:020000040000fa
:1008e800f0b583b000f0a7f94ff45861114800f053
:1008f80025f900252e460f4f0f4c02e00135902dab
:1009080015d0e8b2af2332460146fff777ff4ff420
:100918005861384600f012f90196019ba342eddcbc
:10092800019b01330193019ba342f9dde6e703b084
:0c093800f0bd00bf000000203f420f0097
:020000040000fa
:100944000e4a38b5002313600d4a0e4c13600e4a4c
:100954000e4d13600e4a13600e4a13600e4a536222
:1009640013610123936000f0ecf900f0eaf9ac4262
:1009740000d338bd54f8043b9847f8e75c0e0020d8
:100984008c0d00206c020000880d00207002000015
:0c099400800d0020840d0020900d00203c
:020000040000fa
:1009a00010b4104a002111705160916011730e4c07
:1009b0000e4b5c630e489863586940f08130586173
:1009c0000c48186440f20940208083f8451001214a
:1009d0001170032283f84d2040f602721a805df8f0
:1009e000044b7047280e0020180e002000a0004184
:0809f000380e00200007200072
:020000040000fa
:1009f8000e4b01221a601a46136913f0010ffbd13e
:100a08000a4b4ff4a3621a6003221a7340f21b3296
:100a1800da6133229a72064a0021116001225a7261
:100a28001a461369002bfcd1704700bf00380040fc
:040a3800480e002044
:020000040000fa
:100a3c0010b5054c227832b9044b13b10448aff30e
:100a4c0000800123237010bdfc0d0020000000006d
:100a5c000000000008b5034b1bb103490348aff37a
:100a6c00008008bd00000000000e00200000000007
:020000040000fa
:100a7c0070b50b480b4d4ff6ff76016821b94368f2
:100a8c0013b900f059f970bd83684268334000f126
:100a9c000c0455f823302046984704eb8000ece713
:080aac00c0050000dc0c000095
:020000040000fa
:100ab4000a4a0023136213779360d360084a536091
:100ac400d369002bfcd1064b01221a730e221a6043
:100ad4001a46d369002bfcd1704700bfd00d00200b
:040ae400003400409a
:020000040000fa
:100ae80008b50223064a1370064a1370064b002203
:100af8001a60064b01221a70fff7c0fe08bd00bf3e
:100b0800630e0020640e0020500e0020620e0020ac
:020000040000fa
:100b180008b5084b5b7a63b1064b987ac0b23322aa
:100b28009a72054b1b6823b118b1034b59681b68af
:0c0b3800984708bd00380040480e00201f
:020000040000fa
:100b440010b50024074b1c700b46074a014620468b
:100b5400fff7c0fc034a1378002bfcd0642000f09c
:0c0b640091f810bd610e00202834004004
:020000040000fa
:100b7000084b4ff480321a61012283f8502006227c
:100b800083f85320022283f83820002283f839208a
:080b9000704700bf0080004126
:020000040000fa
:100b9800084a537943f080035371136913f0040f23
:100ba800fbd1044a537913f0e00ffbd1014b58698c
:080bb800704700bf0038004047
:020000040000fa
:100bc00008b500f0a7f8fff7d3fffff705fcfff724
:100bd00071ff00f018f800f017f8fff7e1fefff7db
:080be0000bfffff745fd08bd06
:020000040000fa
:100be80010b50023934206d113f0030018bf01206b
:0e0bf80000eb930010bdc45ccc540133f2e757
:020000040000fa
:020c0600704735
:020000040000fa
:100c0800044b00221a609a60034a5a6004221a6050
:0c0c1800704700bf10e000e0508e0100ab
:020000040000fa
:100c240008b50020fff7caff00f042f8fff75affab
:0a0c340000f003f8fff756fefce79e
:020000040000fa
:100c3e0038b5002425462b462a462946e0b2fff752
:0a0c4e00dafd0134902cf6d138bd18
:020000040000fa
:100c5800044a136843f002031360136913f0020f88
:080c6800fbd170470038004089
:020000040000fa
:100c7000044a136823f002031360136913f0020f90
:080c8000fbd170470038004071
:020000040000fa
:100c880010b50446fff7e4fffff782ffa042fbd34d
:080c9800fff7eaff10bd00bfe9
:020000040000fa
:100ca000012800d07047024b01221a70fae700bffa
:040cb000610e0020b1
:020000040000fa
:100cb40008b500220249104600f022f808bd00bf22
:040cc400a10c00007f
:020000040000fa
:100cc80008b5034800f02ff8c0f3c04008bd00bfc6
:040cd8000080004157
:020000040000fa
:100cdc00f10c0000e90b0000330d0000330d000097
:040cec00330d0000c4
:020000040000fa
:100cf0000a440023914201d10020704701f8013bd2
:020d0000f8e712
:020000040000fa
:020d0200fee70a
:020000040000fa
:100d0400024b03eb0010416082607047280e002004
:020000040000fa
:100d1400024b40f204421a80704700bf0040004179
:020000040000fa
:0a0d240008b50020fff72afd08bd06
:020000040000fa
:040d2e00006a7047a0
:020000040000fa
:040d320000207047e6
:020000040000fa
:020d3600fee7d6
:020000040000fa
:020d3800fee7d4
:020000040000fa
:020d3a00fee7d2
:020000040000fa
:020d3c00fee7d0
:020000040000fa
:020d3e00fee7ce
:020000040000fa
:020d4000fee7cc
:020000040000fa
:020d42007047f8
:020000040000fa
:020d44007047f6
:020000040000fa
:020d46007047f4
:020000040000fa
:0200000400807a
:044000003912003c35
:020000040000fa
:0200000400807a
:044004008000a82a66
:020000040000fa
:0200000400807a
:04400800ffffffffb8
:00000001FF
