:020000040000fa
:10000000f0ff032065080000df0e0000e10e000095
:10001000e50e0000e70e0000e90e00000000000001
:10002000000000000000000000000000dd0e0000e5
:10003000e30e000000000000dd0e0000690d00006e
:10004000dd0e0000dd0e0000dd0e0000dd0e000004
:10005000dd0e0000dd0e0000dd0e0000dd0e0000f4
:10006000dd0e0000dd0e0000dd0e0000dd0e0000e4
:10007000dd0e0000dd0e0000dd0e0000dd0e0000d4
:10008000dd0e0000dd0e0000dd0e0000dd0e0000c4
:10009000dd0e0000dd0e0000dd0e0000dd0e0000b4
:1000a000dd0e0000dd0e0000dd0e0000dd0e0000a4
:1000b000dd0e0000dd0e0000dd0e0000c50e0000ac
:1000c000dd0e0000dd0e0000dd0e0000dd0e000084
:1000d000dd0e0000dd0e0000dd0e0000dd0e000074
:1000e000dd0e0000dd0e000000000000000000003a
:1000f00000000000dd0e0000dd0e0000dd0e00003f
:10010000dd0e0000dd0e0000810200008102000013
:100110008102000081020000dd0e0000dd0e000003
:10012000dd0e0000dd0e0000dd0e0000dd0e000023
:10013000dd0e0000dd0e0000dd0e0000dd0e000013
:10014000dd0e0000dd0e0000dd0e0000dd0e000003
:10015000dd0e0000dd0e00000000000000000000c9
:10016000000000000000000000000000000000008f
:100170000000000000000000dd0e0000dd0e0000a9
:10018000dd0e0000dd0e0000dd0e0000dd0e0000c3
:1001900000000000dd0e0000dd0e0000dd0e00009e
:1001a000dd0e0000dd0e0000dd0e0000dd0e0000a3
:1001b000dd0e0000dd0e0000dd0e0000dd0e000093
:1001c000dd0e0000dd0e0000dd0e0000dd0e000083
:1001d000dd0e0000dd0e0000dd0e0000dd0e000073
:1001e000dd0e0000dd0e0000dd0e0000c50c00007d
:1001f000dd0e0000dd0e0000dd0e0000dd0e000053
:10020000dd0e00000000000000000000dd0e000018
:10021000dd0e0000dd0e0000dd0e0000dd0e000032
:10022000dd0e0000dd0e0000dd0e0000dd0e000022
:10023000dd0e0000dd0e0000dd0e0000dd0e000012
:10024000dd0e0000dd0e0000dd0e0000dd0e000002
:10025000dd0e0000dd0e0000dd0e0000dd0e0000f2
:020000040000fa
:10026000f8b500bff8bc08bc9e467047d50b00002f
:10027000f8b500bff8bc08bc9e467047b10b000043
:020000040000fa
:10028000524b586a524b9b7d002b00f09d8070b5fd
:100290004f494c6804f007044c4b5a699d699e68ad
:1002a0000b7e13f0040f56d0896a484bdb689342eb
:1002b00051d9002c41d1454b5b6899540132444bd4
:1002c0001b7e13f0010f15d0414b012119753f4bd7
:1002d0009b68ab4255d93d4b1b68595d3c4b9962bd
:1002e00001353a4b1b690bb9b54263d0374bdb681c
:1002f000934263d0354b5a619d61354b1b7e13f0a1
:10030000020f13d0334b1b78b3b1304bdb689342f1
:100310000fd12e4b00221a772d4907240c752d4939
:100320000a701b6a43b1294b1b6a9847294b1b78fb
:1003300013b1274b02229a7570bd244b5b6823f8da
:1003400012100132224b1b7e13f0010fd2d0204b32
:100350000121197509e01e4b1b7e13f0010fc9d056
:100360001b4b01211975002cb1d0184b9b68ab4277
:1003700013d9164b1b6833f81510154b99620135cc
:10038000afe7124b1b69002babd0114bff219962d9
:100390000e490b69013b0b61a3e70c4b1b69002b5a
:1003a0009fd00b4b4ff6ff71996208490b69013bd7
:1003b0000b6196e7074b012119709be7044b012164
:1003c00099750421197595e7704700bfd00d00207d
:0803d000003400406c0e002017
:020000040000fa
:1003d800374b00221a7403f50063364a9a621a46ac
:1003e800536813f0100ffbd1334b4ff48372da626a
:1003f8001a46536813f0200ffbd12f4b4222c3f843
:1004080084201a46d2f8843013f0400ffad02b4bd0
:1004180000229a6377225a631a46d36b13f0040fab
:10042800fbd1264b022283f830201a46d36b13f0f7
:10043800020ffbd1214a136c03f00303032bfad1fb
:100448001f4b01225a711a46d37813f0010ffbd0c3
:10045800194b1c4a1a621a46536813f0040ffbd151
:10046800154b194a5a621a46536813f0080ffbd104
:10047800114b4322c3f8a0201a4600bfd2f8a0307f
:1004880013f0400ffad00c4b4122c3f8a4201a46af
:10049800d2f8a43013f0400ffad0094b6ff07f4226
:1004a8001a614ef2ff725a614ff41052da617047c6
:1004b8000014004006013000001c004000100040fd
:0c04c800000800400701010007010200cd
:020000040000fa
:1004d40070b40401354d25442d7b04f1824404f5a8
:1004e400204494f84e4014f0030f02d1edb2002dd5
:1004f40055d1040104f1824505f52045032685f80c
:100504004e602a4d254401262e73294d2c5b14f48c
:10051400806f19bfc91805eb0014254c04eb0014b7
:1005240061600101224c615a11f4006f27d01a4412
:1005340004eb00118a601e4902018c18895a9bb28f
:10054400c1f301210b419bb2638002f1824303f5a5
:1005540020431a6c42f002021a641a6c12f4fe4f21
:100564001fd193f8463013f0400f1dd111490c6987
:10057400012202fa00f323430b61104612e00d49f5
:10058400498811f4404f04d1094901eb00118a60f4
:10059400d1e71168064a02eb00129160cbe7002014
:1005a40000e0012070bc70470120fbe7280e00200a
:0805b400180e002000a0004118
:020000040000fa
:1005bc0010b582b00b4629490a6822f002020a6083
:1005cc000c46e269002afcd1254a92f8501001f041
:1005dc00fe0182f850104ff480319160516100227d
:1005ec000092009947f22f52914206d81446009a75
:1005fc0001320092009aa242f9d9194a4ff4803183
:10060c00916100220192019a632a05d8019a013264
:10061c000192019a632af9d9114991f8502042f0bc
:10062c00010281f850200d490a6842f002020a606a
:10063c000c46e269002afcd100240a4a14700a4aca
:10064c0001462046fff740ff064a1378002bfcd0ea
:10065c00642000f0c9fb02b010bd00bf00340040a4
:0c066c00008000416d0e0020283400408a
:020000040000fa
:10067800f8b5294da5fb0135ad0805ebc505a1eb7e
:1006880045050024244e274610e00b2922d801eb0b
:10069800410101eb01113239c943c9b2ff220b46ae
:1006a800e0b200f061f90134902c2ed0621986fb7b
:1006b8000231d317c3eba10303ebc303a2eb43033c
:1006c800d9b20529e1d801eb410101eb0111c9b209
:1006d800ff22e4e70e2915d8dab20c3ac2eb02225f
:1006e80002ebd2725210d3b2c3ebc3130b4981fb96
:1006f8000301c818d917a1ebe0110139c9b2d243d7
:10070800d2b2cce73a468021c9e74ff45861044891
:10071800fff750fff8bd00bf398ee3388180808035
:0407280000000020ad
:020000040000fa
:10072c00fc0d00204c000000000000006c0e0020ae
:10073c000100000000000000d00d00202c00000083
:10074c0000000000480e0020140000000000000013
:10075c006d0e0020010000000000000000000020d1
:10076c00800d0000000000005c0e00200400000062
:10077c00000000006e0e00200100000000000000d0
:10078c00600e002004000000000000006f0e00202e
:10079c00020000000100000002020000640e0020b4
:1007ac000400000000000000800d0020500000003c
:1007bc0000000000680e0020040000000000000093
:1007cc0000000000000000006666666666666666ed
:020000040000fa
:1007dc001f4ad36823f4e0631b041b0c43f0bf6374
:1007ec0043f40033d360bff35f8f62b6194be02143
:1007fc0083f81f134ff00040186083f832134ff446
:10080c008020586083f833134ff40020586083f82d
:10081c0034134ff48010586083f835134ff40010e4
:10082c00586083f86b134ff40061d960536a43f43a
:10083c0080235362536943f010035361536a43f4aa
:10084c0000335362536a43f480335362704700bfe2
:08085c0000ed00e000e100e006
:020000040000fa
:1008640008b5194b9847194b9847eff3108172b6a6
:10087400174ad2f8883043f47003c2f88830bff3c3
:100884004f8fbff36f8f01b962b6124a936823f09a
:10089400010393601346da6812f0010ffbd10d4b8c
:1008a40024225a6001229a6000f0bcf90a4b23f01a
:1008b4007f03074a9360094b9847094b9847094bb4
:1008c400984700f093f8fee7eb0e0000eb0e0000f3
:1008d40000ed00e00060004100000000b90a0000e3
:0808e400eb0e0000eb0e00001a
:020000040000fa
:1008ec0010b582b000230193030103f1824303f599
:1008fc00204393f84e30dbb20193019b13f0020faf
:10090c000dd0010101f1824202f52042022382f84e
:10091c004e30134b0b4400221a73012400e00224c6
:10092c00019b13f0010f0cd0010101f1824202f581
:10093c002042012382f84e30094b0b4400221a73db
:10094c000224074b03eb00135b6833b1044a02eb40
:10095c00001399685b682046984702b010bd00bf31
:04096c00280e002031
:020000040000fa
:100970008f2839d870b400eb40001c4d05ebc00542
:100980006e1e072042fa00f404f00104002c14bf8c
:10099000fe24e02406f8014f0138b0f1ff3ff1d109
:1009a000ec1d072241fa02f000f00100002814bffc
:1009b000fe20e02004f8010f013ab2f1ff3ff1d12f
:1009c00005f10f00072200bf43fa02f101f0010117
:1009d000002914bffe21e02100f8011f013ab2f105
:1009e000ff3ff1d170bc7047704700bf000000208e
:020000040000fa
:1009f0002de9f041002000f07bf900f007fa00f04b
:100a0000f7f800f021fa00f045f900f0cef90026e1
:100a10003546dff83c804ff480470be0314642f228
:100a20001070fff729fe01360ee03946404600f00f
:100a300050fa254600f0b9f900f0f2f9044600f04a
:100a40003bfab0f5fa7fe9d3a542f3d2ede700bf58
:040a500000800041e1
:020000040000fa
:100a540008b5124b1b78f3b100f0fef9104a136885
:100a6400013313600f4aa2fb03239b090e4a11783a
:100a740081420bd00d4a12689a1a312a08d90c4abd
:100a84001170094a1070094a136001e0074a1360a3
:100a9400054b187808bd0220fce700bf6e0e00204d
:100aa400600e0020d34d62106f0e00205c0e0020fb
:040ab400700e0020a0
:020000040000fa
:100ab8000e4a38b5002313600d4a0e4c13600e4ad7
:100ac8000e4d13600e4a13600e4a13600e4a5362ad
:100ad80013610123936000f006fa00f004faac42b7
:100ae80000d338bd54f8043b9847f8e7680e002057
:100af8008c0d00206c020000880d002070020000a0
:0c0b0800800d0020840d0020900d0020c6
:020000040000fa
:100b140010b4104a002111705160916011730e4c91
:100b24000e4b5c630e489863586940f081305861fd
:100b34000c48186440f20940208083f845100121d4
:100b44001170032283f84d2040f602721a805df87a
:100b5400044b7047280e0020180e002000a000410e
:080b6400380e002000072000fc
:020000040000fa
:100b6c000e4b01221a601a46136913f0010ffbd1c8
:100b7c000a4b4ff4a3621a6003221a734ff46a7281
:100b8c00da6133229a72064a0021116001225a72ec
:100b9c001a461369002bfcd1704700bf0038004087
:040bac00540e0020c3
:020000040000fa
:100bb00010b5054c227832b9044b13b10448aff399
:100bc00000800123237010bdfc0d002000000000f8
:100bd0000000000008b5034b1bb103490348aff305
:100be000008008bd00000000000e00200000000092
:020000040000fa
:100bf0000c4b4ff480421a604ff480321a6140224d
:100c000083f84e20012283f85020062283f85320d7
:100c1000002283f83720022183f8381083f8392026
:080c2000704700bf0080004195
:020000040000fa
:100c280070b50b480b4d4ff6ff76016821b9436844
:100c380013b900f057f970bd83684268334000f17a
:100c48000c0455f823302046984704eb8000ece765
:080c58002c070000700e0000e3
:020000040000fa
:100c60000a4a0023136213779360d360084a5360e3
:100c7000d369002bfcd1064b08221a730e221a608e
:100c80001a46d369002bfcd1704700bfd00d00205d
:040c900000340040ec
:020000040000fa
:100c940008b50223064a1370064a1370064b002255
:100ca4001a60064b01221a70fff7d2fe08bd00bf7e
:100cb4006f0e0020700e00205c0e00206e0e0020cf
:020000040000fa
:100cc40008b5084b5b7a63b1064b987ac0b23322fd
:100cd4009a72054b1b6823b118b1034b59681b6802
:0c0ce400984708bd00380040540e002066
:020000040000fa
:100cf00008b500f0d9f8fff77bfffff76dfbfff7b2
:100d0000afff00f0c8f800f01df8fff703ff00f098
:0c0d1000e4f8fff72bfffff761fd08bdc2
:020000040000fa
:100d1c00084a537943f080035371136913f0040f9d
:100d2c00fbd1044a537913f0e00ffbd1014b586906
:080d3c00704700bf00380040c1
:020000040000fa
:100d4400054a002313609360044951600621116031
:100d5400034a93601360704710e000e0bfd40100c1
:040d6400480e002015
:020000040000fa
:100d680008b5064b5868064a12689a6801329a60b4
:100d78001b6813b1014b1b68984708bd480e00203b
:040d880010e000e097
:020000040000fa
:100d8c0010b50023934206d113f0030018bf0120c5
:0e0d9c0000eb930010bdc45ccc540133f2e7b1
:020000040000fa
:100daa0038b5002425462b462a462946e0b2fff7e5
:0a0dba00dafd0134902cf6d138bdab
:020000040000fa
:100dc400044a136843f002031360136913f0020f1b
:080dd400fbd17047003800401c
:020000040000fa
:100ddc00044a136823f002031360136913f0020f23
:080dec00fbd170470038004004
:020000040000fa
:100df40010b50446fff7e4fffff78effa042fbd3d4
:080e0400fff7eaff10bd00bf7b
:020000040000fa
:100e0c00034b00229a601a6842f001021a60704784
:040e1c0010e000e002
:020000040000fa
:100e200008b500f049f8024ba3fb0030800908bd6b
:040e3000d34d62102c
:020000040000fa
:100e3400012800d07047024b01221a70fae700bf64
:040e44006d0e00200f
:020000040000fa
:100e480008b500220249104600f022f808bd00bf8c
:040e5800350e000053
:020000040000fa
:100e5c0008b5034800f035f8c0f3c04008bd00bf2a
:040e6c0000800041c1
:020000040000fa
:100e7000850e00008d0d0000d70e0000d70e00007b
:040e8000d70e000089
:020000040000fa
:100e84000a440023914201d10020704701f8013b3c
:020e9400f8e77d
:020000040000fa
:020e96007047a3
:020000040000fa
:100e9800024b03eb0010416082607047280e00206f
:020000040000fa
:100ea800024b40f204521a80704700bf00400041d4
:020000040000fa
:0c0eb800014b9868704700bf480e0020f6
:020000040000fa
:0a0ec40008b50020fff710fd08bd7f
:020000040000fa
:040ece00006a7047ff
:020000040000fa
:040ed200c161704743
:020000040000fa
:040ed6000020704741
:020000040000fa
:020eda0070475f
:020000040000fa
:020edc00fee72f
:020000040000fa
:020ede00fee72d
:020000040000fa
:020ee000fee72b
:020000040000fa
:020ee200fee729
:020000040000fa
:020ee400fee727
:020000040000fa
:020ee600fee725
:020000040000fa
:020ee800fee723
:020000040000fa
:020eea0070474f
:020000040000fa
:020eec0070474d
:020000040000fa
:020eee0070474b
:020000040000fa
:0200000400807a
:044000003912003c35
:020000040000fa
:0200000400807a
:044004008000a82a66
:020000040000fa
:0200000400807a
:04400800ffffffffb8
:00000001FF
