:020000040000fa
:10000000f0ff0320d1120000a71c0000071d000014
:100010003f1d0000411d0000431d000000000000c6
:100020000000000000000000000000002f1c000085
:100030003d1d0000000000002f1c0000e91a000018
:100040002f1c00002f1c00002f1c00002f1c000084
:100050002f1c00002f1c00002f1c00002f1c000074
:100060002f1c00002f1c00002f1c00002f1c000064
:100070002f1c00002f1c00002f1c00002f1c000054
:100080002f1c00002f1c00002f1c00002f1c000044
:100090002f1c00002f1c00002f1c00002f1c000034
:1000a0002f1c00002f1c00002f1c00002f1c000024
:1000b0002f1c00002f1c00002f1c0000f51c00004e
:1000c0002f1c00002f1c00002f1c00002f1c000004
:1000d0002f1c00002f1c00002f1c00002f1c0000f4
:1000e0002f1c00002f1c000000000000000000007a
:1000f000000000002f1c00002f1c00002f1c00001f
:100100002f1c00002f1c0000810a0000810a000043
:10011000810a0000810a00002f1c00002f1c000033
:100120002f1c00002f1c00002f1c00002f1c0000a3
:100130002f1c00002f1c00002f1c00002f1c000093
:100140002f1c00002f1c00002f1c00002f1c000083
:100150002f1c00002f1c0000000000000000000009
:10016000000000000000000000000000000000008f
:1001700000000000000000002f1c00002f1c0000e9
:100180002f1c00002f1c00002f1c00002f1c000043
:10019000000000002f1c00002f1c00002f1c00007e
:1001a0002f1c00002f1c00002f1c00002f1c000023
:1001b0002f1c00002f1c00002f1c00002f1c000013
:1001c0002f1c00002f1c00002f1c00002f1c000003
:1001d0002f1c00002f1c00002f1c00002f1c0000f3
:1001e0002f1c00002f1c00002f1c0000a119000074
:1001f0002f1c00002f1c00002f1c00002f1c0000d3
:100200002f1c000000000000000000002f1c000058
:100210002f1c00002f1c00002f1c00002f1c0000b2
:100220002f1c00002f1c00002f1c00002f1c0000a2
:100230002f1c00002f1c00002f1c00002f1c000092
:100240002f1c00002f1c00002f1c00002f1c000082
:100250002f1c00002f1c00002f1c00002f1c000072
:020000040000fa
:10026000f8b500bff8bc08bc9e4670476517000093
:10027000f8b500bff8bc08bc9e46704741170000a7
:020000040000fa
:08028000100300000100000062
:020000040000fa
:100288002de9f041aeb006461546059100270599bf
:100298000b78002b00f0fa8000244ff0ff33cde9f3
:1002a80009430eab0c9380230b940d930b5d0bb19c
:1002b800252b26d134b12246304601f09bfa059b06
:1002c80023440593059b1a78252a40f0d78003f12b
:1002d8000108cdf81480059803782b2b1ad025d85f
:1002e800202b1bd0232b1dd02a2b27d001f0def981
:1002f8000b90059b1a78303a092a2ed801330593ba
:10030800f7e70134d2e7099b43f001030130099371
:100318000590e0e7099b43f00403f7e7099b43f0e6
:100328000803f3e7099b43f01003efe72d2bead00e
:10033800302bd9d1099b43f00203e7e72b681a1d3c
:100348001b682a600130002b05900b9305da099a87
:100358005b4282f0010209920b93099bda0744bfc2
:1003680023f002030993059b1a782e2a0dd1002247
:10037800581c0a9205905a782a2a25d102330593e7
:100388002b681a1d1b682a600a9305a801f014fa45
:10039800059b0390187801f09bfc6928039979d094
:1003a80032dc632800f0cb8019dc252800f0d980e6
:1003b800612853d000234ff0ff32cdf81480099301
:1003c8000b930a920093d4e001f070f90a90059b10
:1003d8001a78303a092ad8d801330593f7e7642800
:1003e80058d06728e6dc2a4606a801f001fb002859
:1003f80000f0a180059b5a1c05921b7806aa09a942
:10040800304601f091fc38e0702873d015dc6e2876
:1004180000f08c806f28cdd12b46002206a800f072
:1004280085fd002800f08780059b06aa013309a9ed
:100438003046059301f076fc1fe075283ad07828fd
:1004480048d07328b6d1802975d1059b2a68013315
:100458000593131d2b60126800237de02a4606a829
:1004680001f0c6fa002866d0059b5a1c05921b7835
:1004780006aa09a9304601f057fc04443c44a742a7
:100488007add3e4b4f221a604ff0ff3738462eb0c8
:10049800bde8f0812b46012206a800f047fd0028a0
:1004a80049d0059b06aa013309a93046059300f0f7
:1004b800e7fde2e72b46002206a800f037fd0028fa
:1004c80039d0059b06aa013309a93046059301f0e6
:1004d80029fcd2e72b46002206a800f027fd50b3de
:1004e800059b5a1c05921b7806aa09a9304600f0fc
:1004f80013fcc2e72b460022f02106a800f016fde7
:10050800c8b1059b01330593dde9062313430bd1dd
:100518001b4801f071fb099b009319490b9b02468c
:10052800304600f057ffa8e77823dde72b463a1955
:1005380006a800f091ff059b013305939ee78029eb
:10054800f9d1059b013305932b681a1d1b682a6096
:100558008df8183006aa012309a9304601f0e6fbf8
:100568008be78029e7d1059b01330593099b00930d
:100578000b9b04490122d3e7274688e6d40e0020c6
:08058800fe1c0000041d000030
:020000040000fa
:100590002de9f04f099f154604468e461e46002b56
:1005a00040f0cc808a42b2fa82fc4cd9bcf1000ff8
:1005b0000bd0ccf1200801fa0cfe20fa08f802fa60
:1005c0000cf548ea0e0e00fa0cf44fea15491ffa32
:1005d00085f8befbf9fa210c09fb1ae30afb08fbbc
:1005e00041ea03439b452ad9eb180af1ff3004d2b4
:1005f0009b4502d9aaf102002b44a3eb0b03a4b242
:10060000b3fbf9f209fb123302fb08f844ea034496
:10061000a04516d92c1902f1ff3303d2a04501d908
:10062000931e2c44a4eb080443ea004027b124faab
:100630000cf400233c607b603146bde8f08f5046ef
:10064000dbe71346eee702b9ffdebcf1000f2ed167
:100650008b1a01264fea154eaab2b3fbfef8210c05
:100660000efb183308fb02f941ea0343994561d9af
:10067000eb1808f1ff3004d2994502d9a8f1020025
:100680002b44a3eb0903a4b2b3fbfef10efb113321
:100690004a4344ea0344a2424ed92c1901f1ff33e4
:1006a00003d2a24201d98b1e2c44a41abce7ccf180
:1006b000200e02fa0cf521fa0ef901fa0cf320fad9
:1006c0000efe4eea03034fea154800fa0cf4b9fb9c
:1006d000f8f11ffa85fe08fb1192180c01fb0ef6cb
:1006e00040ea0242964221d9aa1801f1ff3003d212
:1006f000964201d9881e2a44921b9bb2b2fbf8f99c
:1007000008fb192209fb0efe43ea02439e450fd95e
:10071000eb1809f1ff3604d29e4502d9a9f1020671
:100720002b44a3eb0e0346ea004693e70846e3e7b3
:100730004e46f6e74046a4e70b46b6e78b4206d99d
:10074000002f7ed00026c7e90001304674e7b3fad7
:1007500083fcbcf1000f0fd18b4201d3824209d838
:10076000841a61eb030e0120002f6dd0c7e9004e03
:10077000002661e76046f7e7ccf1200e03fa0cf3a0
:1007800022fa0ef521fa0ef41d4301fa0cf320fab9
:100790000ef10b434fea154a00fa0cf6b4fbfaf9d6
:1007a0001ffa85f80afb19401c0c09fb08f144ea02
:1007b0000044a14202fa0cf23fd92c1909f1ff3092
:1007c00004d2a14202d9a9f102002c44641a9bb2be
:1007d000b4fbfaf90afb194409fb08f843ea04419f
:1007e00088452cd9691809f1ff3304d2884502d90c
:1007f000a9f10203294443ea0040a1eb0801a0fb50
:1008000002894945c2464c4602d306d1464504d228
:10081000b8eb020a69eb05040138afb1b6eb0a0385
:1008200061eb040606fa0efe23fa0cf34eea03030c
:1008300026fa0cf6c7e900369ae74846c6e74b4663
:0c084000d9e73e463846f7e63e46f5e6ae
:020000040000fa
:10084c004c454420302d3720427566666572202851
:10085c00313932206279746573293a004c45442051
:10086c003020285265643a203235352c302c302912
:10087c003a20427974657320302d32332028473a60
:10088c00307830302c20523a307846462c20423a80
:10089c0030783030290000004c4544203120284f5e
:1008ac0072616e67653a203235352c3132372c3017
:1008bc00293a2042797465732032342d343720283c
:1008cc00473a307837462c20523a307846462c201e
:1008dc00423a3078303029004c4544203220285997
:1008ec00656c6c6f773a203235352c3235352c30bf
:1008fc00293a2042797465732034382d37312028f9
:10090c00473a307846462c20523a307846462c20ce
:10091c00423a3078303029004c4544203320284767
:10092c007265656e3a20302c3235352c30293a20e0
:10093c0042797465732037322d39352028473a3087
:10094c007846462c20523a307830302c20423a30bf
:10095c0078303029000000004c45442034202843d6
:10096c0079616e3a20302c3235352c323535293ab6
:10097c002042797465732039362d3131392028475e
:10098c003a307846462c20523a307830302c20427f
:10099c003a307846462900004c4544203520284200
:1009ac006c75653a20302c302c323535293a204282
:1009bc0079746573203132302d3134332028473a25
:1009cc00307830302c20523a307830302c20423a6b
:1009dc0030784646290000004c45442036202856e5
:1009ec00696f6c65743a203132372c302c323535c6
:1009fc00293a204279746573203134342d313637dd
:100a0c002028473a307837462c20523a307830300c
:100a1c002c20423a30784646290000004c454420b0
:100a2c003720284d6167656e74613a203235352c5c
:100a3c00302c323535293a204279746573203136a1
:100a4c00382d3139312028473a307830302c20522b
:100a5c003a307846462c20423a30784646290000f7
:100a6c00427974652025643a203078253032580a52
:040a7c00000000bfb7
:020000040000fa
:100a8000524b586a524b9b7d002b00f09d8070b5f5
:100a90004f494c6804f007044c4b5a699d699e68a5
:100aa0000b7e13f0040f56d0896a484bdb689342e3
:100ab00051d9002c41d1454b5b6899540132444bcc
:100ac0001b7e13f0010f15d0414b012119753f4bcf
:100ad0009b68ab4255d93d4b1b68595d3c4b9962b5
:100ae00001353a4b1b690bb9b54263d0374bdb6814
:100af000934263d0354b5a619d61354b1b7e13f099
:100b0000020f13d0334b1b78b3b1304bdb689342e9
:100b10000fd12e4b00221a772d4907240c752d4931
:100b20000a701b6a43b1294b1b6a9847294b1b78f3
:100b300013b1274b02229a7570bd244b5b6823f8d2
:100b400012100132224b1b7e13f0010fd2d0204b2a
:100b50000121197509e01e4b1b7e13f0010fc9d04e
:100b60001b4b01211975002cb1d0184b9b68ab426f
:100b700013d9164b1b6833f81510154b99620135c4
:100b8000afe7124b1b69002babd0114bff219962d1
:100b90000e490b69013b0b61a3e70c4b1b69002b52
:100ba0009fd00b4b4ff6ff71996208490b69013bcf
:100bb0000b6196e7074b012119709be7044b01215c
:100bc00099750421197595e7704700bf300e002014
:080bd00000340040d80e0020a3
:020000040000fa
:100bd800494b00221a7403f50063484a9a621a4680
:100be800536813f0100ffbd1454b4222c3f8842001
:100bf8001a4600bfd2f8843013f0400ffad0414ba8
:100c080000229a6377225a631a46d36b13f0040fb3
:100c1800fbd13c4b022283f830201a46d36b13f0e9
:100c2800020ffbd1374a136c03f00303032bfad1ed
:100c3800334b4222c3f888201a4600bfd2f88430ca
:100c480013f0400ffad02f4b0022da642e4a9a6430
:100c58001a46136d13f0040ffbd12a4b022283f8b6
:100c680044201a46136d13f0020ffbd1254a536d29
:100c780003f00303032bfad1244b01225a711a46bd
:100c8800d37813f0010ffbd01d4b214a1a621a4684
:100c9800536813f0040ffbd1194b1e4a5a621a46c7
:100ca800536813f0080ffbd1154b4ff48472da62c6
:100cb8001a46536813f0200ffbd1114b4322c3f897
:100cc800a0201a46d2f8a03013f0400ffad00c4bef
:100cd8004122c3f8a4201a46d2f8a43013f0400fda
:100ce800fad00a4b6ff07f421a614ef2ff725a61d6
:100cf8004ff41052da6170470014004006013000ca
:100d0800001c0040001000403200070000080040ae
:080d18000701010007010200c0
:020000040000fa
:100d20002de9f04f0e4649683568d6f80890f76807
:100d30008bb0cde903230029acbf25f002050121ca
:100d400015f010030593039b8346d3e900232fd0ae
:100d500052ea03002cd0a9f10208346915f008000a
:100d600004f1ff3408904ff00000385518bf08f127
:100d7000ff388a46012c1ddc059b002b54d1089bb3
:100d800013b1013c20233b5532690095013a4b4693
:100d9000121b3919584600f021fbdbf80430db0543
:100da00003d573689842b8bf18460bb0bde8f08f02
:100db000c846d2e752ea030009d1baf1000f06dcb7
:100dc000a8eb010050440028d6dda807d4d502f0d6
:100dd0000f000928d4bf00f1300e00f1570e04981f
:100de000a0f1410cbcf1190f04f1ff3410d84ef002
:100df000200cacf1610cbcf1190f09d870460991b7
:100e0000cde9062300f06fffdde906230999864648
:100e1000100940ea03704fea131c07f804e00af1d6
:100e2000ff3a02466346a5e7039bd3e9000150ea77
:100e30000103a4d03a19049b02f8013c023c302380
:040e40003b559ce79b
:020000040000fa
:100e44005c0e00204c00000000000000d80e0020c2
:100e54000100000000000000300e00202c00000003
:100e640000000000a80e0020140000000000000094
:100e7400d90e002001000000000000000000002046
:100e8400e00d000000000000c40e0020040000007b
:100e940000000000da0e0020010000000000000045
:100ea400c80e00200400000000000000db0e00203b
:100eb400010000000100000002000000fc0e002000
:100ec400010000000100000002000000cc0e002020
:100ed4000400000000000000e00d002050000000ad
:100ee40000000000dc0e00202000000001000000d3
:100ef40001000000030000000000000000000000ea
:100f0400000000000000000000000000bc0e0020f3
:100f1400bc0e00200800000000000000d00e0020dd
:100f240008000000000000000000000000000000b5
:020000040000fa
:100f3400882910b536d012dc812943d003dc8029fe
:100f440040d0002010bd82290ed08429f9d119681f
:100f540002b30a1d1a60b1f90020d3171ee0a029bc
:100f64002bd00bdc9029ecd11968073121f0070153
:100f740001f108021a60d1e900230fe0c02901d071
:100f8400f029ded11a68111d19601368036000236b
:100f9400436005e00a1d1a600a880023c0e90023a3
:100fa4000120cfe7196822b10a1d1a6091f90020c7
:100fb400d3e70a1d1a600a78efe71a68111d196051
:100fc4001268cae719681ab10a1d1a600a68c4e7e8
:0c0fd4000c1d1c600b68c0e90032e1e756
:020000040000fa
:100fe000f8b505460c4672b6254a136823f002038d
:100ff0001360d369002bfcd1224e96f8503003f0d9
:10100000fe0386f850304ff48037b7607761642074
:1010100000f044fdb7610a2000f040fd96f8503022
:1010200043f0010386f85030154a136843f0020379
:101030001360d369002bfcd16cb1691e601e15fad8
:1010400080f00f4a137e13f0010ffbd011f8013f1f
:1010500093628142f6d10a4a137e13f0020ffbd04d
:10106000084b93f8502002f0fe0283f850204ff412
:1010700080325a61642000f011fd62b6f8bd00bff5
:08108000003400400080004133
:020000040000fa
:101088002de9f041d2e900230c4686b007465fea15
:10109800d37820684968a5680590e66841d052422f
:1010a80063eb4303002908db20f002000590b8f148
:1010b800000f02d1059948072ad5691e05a8029094
:1010c8000a20cde90010204600f004fab8f1000f1c
:1010d80002d1059b59071fd5b8f1000f00f1ff3069
:1010e80014bf2d232b2333542269059b0093013a07
:1010f8002b46121a3118384600f06cf97b68db056c
:1011080003d563689842b8bf184606b0bde8f081b9
:101118000807d2d42946d1e71a07e5d50138202394
:08112800e1e70029c0dac5e788
:020000040000fa
:10113000f8b5174800f09efc164800f09bfc1648d6
:1011400000f098fc154800f095fc154800f092fc62
:10115000144800f08ffc144800f08cfc134800f099
:1011600089fc134800f086fc124d05f15f0405f27e
:101170001f17c5f1ff2505f57f05a1350e4e29196d
:1011800014f8012f304600f0d3fcbc42f7d1f8bd73
:101190004c08000068080000a4080000e4080000f3
:1011a0002409000064090000a4090000e40900000b
:0c11b000280a0000000000206c0a00006b
:020000040000fa
:1011bc008f283fd8f0b400eb40001f4d05ebc0006a
:1011cc0000f160056c1e2e4605f1070caf1d381b97
:1011dc0042fa00f000f00100002814bffc20e020cf
:1011ec0004f8010f6445f2d1e81d05f10f0706f173
:1011fc000e04221a41fa02f202f00102002a14bf74
:10120c00fc22e02200f8012fb842f2d105f10f01c7
:10121c0005f117001636721a43fa02f202f00102b7
:10122c00002a14bffc22e02201f8012f8142f2d1e6
:0c123c00f0bc7047704700bf00000020ad
:020000040000fa
:101248001f4ad36823f4e0631b041b0c43f0bf63fd
:1012580043f40033d360bff35f8f62b6194be021cc
:1012680083f81f134ff00040186083f832134ff4cf
:101278008020586083f833134ff40020586083f8b7
:1012880034134ff48010586083f835134ff400106e
:10129800586083f86b134ff40061d960536a43f4c4
:1012a80080235362536943f010035361536a43f434
:1012b80000335362536a43f480335362704700bf6c
:0812c80000ed00e000e100e090
:020000040000fa
:1012d00008b5194b9847194b9847eff3108172b630
:1012e000174ad2f8883043f47003c2f88830bff34d
:1012f0004f8fbff36f8f01b962b6124a936823f024
:10130000010393601346da6812f0010ffbd10d4b15
:1013100024225a6001229a6000f08efa0a4b23f0d0
:101320007f03074a9360094b9847094b9847094b3d
:10133000984700f0edfafee7451d0000451d00004e
:1013400000ed00e00060004100000000b915000061
:08135000451d0000451d0000d1
:020000040000fa
:1013580010b582b000230193030103f1824303f522
:10136800204393f84e30dbb20193019b13f0020f38
:101378000dd0010101f1824202f52042022382f8d8
:101388004e30134b0b4400221a73012400e0022450
:10139800019b13f0010f0cd0010101f1824202f50b
:1013a8002042012382f84e30094b0b4400221a7365
:1013b8000224074b03eb00135b6833b1044a02ebca
:1013c800001399685b682046984702b010bd00bfbb
:0413d800880e00205b
:020000040000fa
:1013dc002de9ff471d460c9b13f0010906468a4672
:1013ec00144601d195420bd822465146304600f0a6
:1013fc00fff9a54204d82546284604b0bde8f0877d
:10140c002f1b102f3a464ff0200128bf10226846a0
:10141c00b84600f02ffc00bfb8f10f0f11d83b09f4
:10142c006ff00f0202fb03726946304600f0e0f9e0
:10143c00b9f1000fe0d122465146304600f0d8f900
:10144c00dae710226946304600f0d2f9a8f110080c
:04145c00e2e700bf04
:020000040000fa
:10146000842910b523d00cdc812903d0822913d024
:1014700080290bd119680c1d1c600b6803601a6071
:1014800013e0902921d003dc882917d0002010bd5b
:10149000a029efd0c029ece719680c1d1c600b686f
:1014a0000360d1171046c3e900010120efe7196876
:1014b0000c1d1c600b6803601a80f6e719680c1d90
:1014c0001c600b6803601a70efe719680c1d1c6044
:0c14d00009680160d317c1e90023e6e7ba
:020000040000fa
:1014dc002de9f84f04460c9f6668d4f80cb02469cb
:1014ec0010463a68013c002502f0020a0b9a0bf8f0
:1014fc000450002e1946b8bf0126012390464fea2e
:10150c00e279002c03dcd3b12046bde8f88f50ea19
:10151c00010209d1721b002a06dc0a9a521b002a0e
:10152c00f1ddbaf1000feed042464b4600f01afa4c
:10153c00013c134630320bf804200135e1e73b68df
:08154c0023f010033b60dfe710
:020000040000fa
:1015540008b5124b1b78f3b100f072fb104a136804
:10156400013313600f4aa2fb03239b090e4a11782f
:1015740081420bd00d4a12689a1a312a08d90c4ab2
:101584001170094a1070094a136001e0074a136098
:10159400054b187808bd0220fce700bfda0e0020d6
:1015a400c80e0020d34d6210db0e0020c40e0020b4
:0415b400fc0e002009
:020000040000fa
:1015b8000e4a38b5002313600d4a0e4c13600e4acc
:1015c8000e4d13600e4a13600e4a13600e4a5362a2
:1015d80013610123936000f073fb00f0b1fbac4290
:1015e80000d338bd54f8043b9847f8e7d00e0020e4
:1015f800ec0d00206c020000e80d002070020000d5
:0c160800e00d0020e40d0020f00d00209b
:020000040000fa
:1016140010b4104a002111705160916011730e4c86
:101624000e4b5c630e489863586940f081305861f2
:101634000c48186440f20940208083f845100121c9
:101644001170032283f84d2040f602721a805df86f
:10165400044b7047880e0020780e002000a0004143
:08166400980e00200007200091
:020000040000fa
:10166c00104b4ff480421a604ff480321a614022c2
:10167c0083f84e20012283f85020062283f8532051
:10168c00002283f83720022183f8381083f83920a0
:10169c00c021c3f8801083f8c62083f8c72083f8d4
:0816ac00b320704700800041eb
:020000040000fa
:1016b40010b50278202a034600f10100f9d0a2f106
:1016c40009010429f5d92b2a07d02d2a11d101218a
:1016d4000133013b00200a2403e00021f8e76043c2
:1016e400801a13f8012f303a092af8d901b9404277
:0616f40010bd0021ede72e
:020000040000fa
:0216fa00704737
:020000040000fa
:1016fc000e4b01221a601a46136913f0010ffbd12d
:10170c000a4b4ff4a3621a6003221a734ff46a72e5
:10171c00da6133229a72064a0021116001225a7250
:10172c001a461369002bfcd1704700bf00380040eb
:04173c00b40e0020c7
:020000040000fa
:1017400010b5054c227832b9044b13b10448aff3fd
:1017500000800123237010bd5c0e002000000000fb
:101760000000000008b5034b1bb103490348aff369
:10177000008008bd00000000600e00200000000096
:020000040000fa
:1017800070b40d4b5e681b6813f0010f12d00b4b49
:1017900003fb00f0084b9b6860b10021064c01364a
:1017a000a2689a4292bf9b1ab51a5b191944134654
:1017b0008842f5d870bc704710e000e0c0d401004a
:020000040000fa
:1017c00030b50d4a002300bf12f8134024b902ebd4
:1017d00043035b78184630bd01680d78a54209bf08
:1017e00002eb430301335b78013114bfdbb20160cc
:0c17f0000a2be9d9eee700bf181c00002e
:020000040000fa
:1017fc0038b5436813f4807f0446154611d003694d
:10180c009a4228bf1d465db12a46406900f0caf9cc
:10181c00636922692b44551b0022636125611a7090
:0c182c0038bddb06fcd400f074faf9e7cc
:020000040000fa
:1018380070b50b480b4d4ff6ff76016821b9436828
:1018480013b900f07cfa70bd83684268334000f138
:101858000c0455f823302046984704eb8000ece749
:08186800440e0000581c0000b2
:020000040000fa
:1018700007b54a68c0b2d2050b468df8070006d5f9
:101880004a69511c5961107003b05df804fb0122d4
:101890000df10701184600f042fa10b19df807005b
:0818a000f2e74ff0ff30efe723
:020000040000fa
:1018a8000a4a0023136213779360d360084a53608f
:1018b800d369002bfcd1064b03221a730e221a603f
:1018c8001a46d369002bfcd1704700bf300e0020a8
:0418d8000034004098
:020000040000fa
:1018dc00f8b507460e46154600f056f900242b467f
:1018ec0032463946e0b2fff763fc0134902cf6d156
:1018fc00fff718fc4ff45e610148fff76bfbf8bd76
:04190c0000000020b7
:020000040000fa
:1019100008b5002000f05af800f08af9fff7a6fe9b
:1019200000f094f800f00cf800f034f9ff2422469f
:1019300021462046fff7d2ff6420fff721fff6e79c
:020000040000fa
:1019400008b50223064a1370064a1370064b00229c
:101950001a60064b01221a70fff7fcfd08bd00bf9c
:10196000db0e0020fc0e0020c40e0020da0e00204a
:020000040000fa
:1019700053b94ab9002908bf00281cbf4ff0ff31f6
:101980004ff0ff3000f0d8b9adf1080c6de904ce8e
:10199000fef7fefdddf804e0dde9022304b0704748
:020000040000fa
:1019a00008b5084b5b7a63b1064b987ac0b2332214
:1019b0009a72054b1b6823b118b1034b59681b6819
:0c19c000984708bd00380040b40e00201d
:020000040000fa
:1019cc0008b500f073f9fff74bfefff7fff8fff7d0
:1019dc0065fffff78cfe00f06ff8fff715fe00f0c7
:0c19ec006af8fff785fefff729fc08bd34
:020000040000fa
:1019f800802910db812901dd83290cd11368073385
:101a080023f0070303f108011160d3e90023c0e9bb
:0a1a180000230120704700207047f2
:020000040000fa
:101a220070b5002902fb01f614460d4618bf144694
:101a320001463246184608bf002400f06ff986427c
:0a1a420018bfb0fbf5f4204670bd9c
:020000040000fa
:101a4c0008b5074a531e02f6df52002103f8011fa6
:101a5c009342fbd100220349104600f01ff908bd48
:081a6c00000000200d1b00002a
:020000040000fa
:101a740010b5084c2368196800f06af8002807dbe1
:101a840023680a20196800f041f9c00f404210bdd4
:081a94000120fbe7f80e002021
:020000040000fa
:101a9c0082b0c0eb0010c000024600230193019bf2
:101aac00984206d900bf019b01330193019b9342dd
:061abc00f8d302b07047f0
:020000040000fa
:021ac20070476b
:020000040000fa
:101ac400054a0023136093600449516006211160a4
:101ad400034a93601360704710e000e0bfd4010034
:041ae400a80e002028
:020000040000fa
:101ae80008b5064b5868064a12689a6801329a6027
:101af8001b6813b1014b1b68984708bda80e00204e
:041b080010e000e009
:020000040000fa
:101b0c0008b5012802d0022804d008bd034b0122dd
:101b1c001a70fae70248fff7a7fff6e7d90e002084
:041b2c00e81b0000b2
:020000040000fa
:101b30000fb407b5064b04aa1b6852f8041b1868bb
:101b4000019200f043f803b05df804eb04b0704775
:041b5000f80e00206b
:020000040000fa
:101b540070b50e46054600f051f833460446024679
:101b640001212846fff75bff001b18bf4ff0ff3031
:021b740070bd42
:020000040000fa
:101b760010b50023934206d113f0030018bf0120cd
:0e1b860000eb930010bdc45ccc540133f2e7b9
:020000040000fa
:101b9400054a531e02f6df52002100bf03f8011f5d
:0c1ba4009342fbd1704700bf00000020fe
:020000040000fa
:101bb0005ab110b40a44431e11f8014b03f8014f07
:0c1bc0009142f9d15df8044b704770476a
:020000040000fa
:101bcc0013b50446019201aafef758fb636813f0a3
:0c1bdc00100f18bf4ff0ff3002b010bd1a
:020000040000fa
:101be800444d41204572726f72206f6e20436861c8
:081bf8006e6e656c20300000e8
:020000040000fa
:101c000003783bb1034600bf13f8012f002afbd134
:081c1000181a704718467047ce
:020000040000fa
:101c180068076c094c836a9074a07ac00080688851
:061c280000846c820081c3
:020000040000fa
:021c2e00fee7cf
:020000040000fa
:101c3000034b00229a601a6842f001021a60704752
:041c400010e000e0d0
:020000040000fa
:101c440008b5034800f06cf8c0f3c04008bd00bffd
:041c540000800041cb
:020000040000fa
:101c5800951c0000771b0000291d0000291d0000ad
:041c6800291d000032
:020000040000fa
:101c6c0008b500f04bf8024b1860586008bd00bf77
:041c7c00bc0e00207a
:020000040000fa
:101c800032b1c9b20244034603f8011b9342fbd1af
:041c9000704700bfda
:020000040000fa
:101c94000a440023914201d10020704701f8013b1e
:021ca400f8e75f
:020000040000fa
:021ca600fee757
:020000040000fa
:101ca800024b03eb0010416082607047880e0020f1
:020000040000fa
:101cb800024b40f204521a80704700bf00400041b6
:020000040000fa
:101cc80008b5fff7cfff00f03cf800f03af808bd80
:020000040000fa
:0e1cd800a0f14103192b98bf40f02000704787
:020000040000fa
:0e1ce600a0f16103192b98bf00f05f0070475a
:020000040000fa
:0a1cf40008b50020fff72efb08bd25
:020000040000fa
:081cfe00286e696c2900250025
:020000040000fa
:021d0600fee7f6
:020000040000fa
:081d080000487047dc0e0020ca
:020000040000fa
:081d100008b5fff7adfd08bda9
:020000040000fa
:061d18004ff0ff307047a0
:020000040000fa
:061d1e000068fff7fabfa8
:020000040000fa
:041d2400006a70479a
:020000040000fa
:041d280000207047e0
:020000040000fa
:041d2c0000207047dc
:020000040000fa
:041d300000207047d8
:020000040000fa
:041d340000207047d4
:020000040000fa
:041d3800704700bf31
:020000040000fa
:021d3c00fee7c0
:020000040000fa
:021d3e00fee7be
:020000040000fa
:021d4000fee7bc
:020000040000fa
:021d4200fee7ba
:020000040000fa
:021d44007047e6
:020000040000fa
:021d46007047e4
:020000040000fa
:021d48007047e2
:020000040000fa
:021d4a007047e0
:020000040000fa
:0200000400807a
:044000003912003c35
:020000040000fa
:0200000400807a
:044004008000a82a66
:020000040000fa
:0200000400807a
:04400800ffffffffb8
:00000001FF
