:020000040000fa
:10000000f0ff032021060000130c0000430c000049
:10001000470c0000490c00004b0c000000000000e1
:10002000000000000000000000000000af0b000016
:10003000450c000000000000af0b0000490b000061
:10004000af0b0000af0b0000af0b0000af0b0000c8
:10005000af0b0000af0b0000af0b0000af0b0000b8
:10006000af0b0000af0b0000af0b0000af0b0000a8
:10007000af0b0000af0b0000af0b0000af0b000098
:10008000af0b0000af0b0000af0b0000af0b000088
:10009000af0b0000af0b0000af0b0000af0b000078
:1000a000af0b0000af0b0000af0b0000af0b000068
:1000b000af0b0000af0b0000af0b0000350c0000d1
:1000c000af0b0000af0b0000af0b0000af0b000048
:1000d000af0b0000af0b0000af0b0000af0b000038
:1000e000af0b0000af0b000000000000000000009c
:1000f00000000000af0b0000af0b0000af0b0000d2
:10010000af0b0000af0b0000af0b0000af0b000007
:10011000af0b0000af0b0000af0b0000af0b0000f7
:10012000af0b0000af0b0000af0b0000af0b0000e7
:10013000af0b0000af0b0000af0b0000af0b0000d7
:10014000af0b0000af0b0000af0b0000af0b0000c7
:10015000af0b0000af0b000000000000000000002b
:10016000000000000000000000000000000000008f
:100170000000000000000000af0b0000af0b00000b
:10018000af0b0000af0b0000af0b0000af0b000087
:1001900000000000af0b0000af0b0000af0b000031
:1001a000af0b0000af0b0000af0b0000af0b000067
:1001b000af0b0000af0b0000af0b0000af0b000057
:1001c000af0b0000af0b0000af0b0000af0b000047
:1001d000af0b0000af0b0000af0b0000af0b000037
:1001e000af0b0000af0b0000af0b0000af0b000027
:1001f000af0b0000af0b0000af0b0000af0b000017
:10020000af0b00000000000000000000af0b00007a
:10021000af0b0000af0b0000af0b0000af0b0000f6
:10022000af0b0000af0b0000af0b0000af0b0000e6
:10023000af0b0000af0b0000af0b0000af0b0000d6
:10024000af0b0000af0b0000af0b0000af0b0000c6
:10025000af0b0000af0b0000af0b0000af0b0000b6
:020000040000fa
:10026000f8b500bff8bc08bc9e467047e90900001d
:10027000f8b500bff8bc08bc9e467047c509000031
:020000040000fa
:100280004f4b00221a7403f500634e4a9a621a46d5
:10029000536813f0100ffbd14b4b4222c3f884205c
:1002a0001a4600bfd2f8843013f0400ffad0474b03
:1002b00000229a6377225a631a46d36b13f0040f15
:1002c000fbd1424b022283f830201a46d36b13f045
:1002d000020ffbd13d4a136c03f00303032bfad149
:1002e000394b4222c3f888201a4600bfd2f8843026
:1002f00013f0400ffad0354b0022da64344a9a6486
:100300001a46136d13f0040ffbd1304b022283f811
:1003100044201a46136d13f0020ffbd12b4a536d84
:1003200003f00303032bfad12a4b01225a711a4618
:10033000d37813f0010ffbd0234b274a1a621a46d9
:10034000536813f0040ffbd11f4b244a5a621a461c
:10035000536813f0080ffbd11b4b4ff48472da6221
:100360001a46536813f0200ffbd1174b4322c3f8f2
:10037000a0201a46d2f8a03013f0400ffad0124b4a
:100380004022c3f8ac201a46d2f8ac3013f0400f2c
:10039000fad00d4b4022c3f8e4201a46d2f8e430dc
:1003a00013f0400ffad00b4b6ff07f421a6142f20c
:1003b000ff725a610a4a9a614ff41052da6170472b
:1003c0000014004006013000001c004000100040f6
:1003d0003200070000080040070101000701020089
:0403e000d6880100ba
:020000040000fa
:1003e40070b40401354d25442d7b04f1824404f599
:1003f400204494f84e4014f0030f02d1edb2002dc6
:1004040055d1040104f1824505f52045032685f8fc
:100414004e602a4d254401262e73294d2c5b14f47d
:10042400806f19bfc91805eb0014254c04eb0014a8
:1004340061600101224c615a11f4006f27d01a4403
:1004440004eb00118a601e4902018c18895a9bb280
:10045400c1f301210b419bb2638002f1824303f596
:1004640020431a6c42f002021a641a6c12f4fe4f12
:100474001fd193f8463013f0400f1dd111490c6978
:10048400012202fa00f323430b61104612e00d49e6
:10049400498811f4404f04d1094901eb00118a60e5
:1004a400d1e71168064a02eb00129160cbe7002005
:1004b40000e0012070bc70470120fbe7c001002070
:0804c400b001002000a000417e
:020000040000fa
:1004cc0070b461b30c462b4da5fb0015ed082b2128
:1004dc0001fb150000eb40004100c9b2c4f1ff065e
:1004ec0002fb06f6c6f3072601fb04f00012c0f16e
:1004fc00ff0002fb00f0c0f30720c1f1ff0104fb79
:10050c0001f4240ac4f1ff0402fb04f4c4f307242d
:10051c00042d29d8dfe805f00a10161c22000499d6
:10052c000a7003990a701a7070bc70471a70039b9a
:10053c001c70049b1e70f7e71870039b1a70049bc9
:10054c001e70f1e71e70039b1a70049b1c70ebe786
:10055c001e70039b1870049b1a70e5e71c70039bbc
:10056c001e70049b1a70dfe71a70039b1e70049bad
:08057c001870d9e783bea02f1f
:020000040000fa
:100584001d2848d8f0b400ebc000234f07440724cb
:10059400002600bf42fa04f505f00105002d14bf42
:1005a4000625042545eac606013cb4f1ff3ff1d116
:1005b400340c194a1454320a7a70be70072200248b
:1005c40041fa02f000f00100002814bf06200420c4
:1005d40040eac404013ab2f1ff3ff1d1220cfa70af
:1005e400220a3a717c710722002000bf43fa02f10b
:1005f40001f00101002914bf0621042141eac000d1
:10060400013ab2f1ff3ff1d1030cbb71030afb7154
:0c0614003872f0bc7047704700000020f6
:020000040000fa
:1006200008b5194b9847194b9847eff3108172b6ec
:10063000174ad2f8883043f47003c2f88830bff309
:100640004f8fbff36f8f01b962b6124a936823f0e0
:10065000010393601346da6812f0010ffbd10d4bd2
:1006600024225a6001229a6000f0ecf90a4b23f030
:100670007f03074a9360094b9847094b9847094bfa
:10068000984700f03bfafee74d0c00004d0c0000cf
:1006900000ed00e00060004100000000bd08000027
:0806a0004d0c00004d0c0000a0
:020000040000fa
:1006a80010b582b000230193030103f1824303f5df
:1006b800204393f84e30dbb20193019b13f0020ff5
:1006c8000dd0010101f1824202f52042022382f895
:1006d8004e30134b0b4400221a73012400e002240d
:1006e800019b13f0010f0cd0010101f1824202f5c8
:1006f8002042012382f84e30094b0b4400221a7322
:100708000224074b03eb00135b6833b1044a02eb86
:10071800001399685b682046984702b010bd00bf77
:04072800c0010020ec
:020000040000fa
:10072c00900100201c00000000000000b00100201f
:10073c003000000000000000e00100200c00000070
:10074c00000000000000002040010000000000003c
:10075c00f00100200100000000000000ac010020ae
:10076c0004000000000000004001002050000000c8
:10077c0000000000ec01002004000000000000005c
:10078c00000000000000000066666666666666662d
:020000040000fa
:10079c00174b4ff482421a604ff480321a610322d5
:1007ac0083f84820012283f84c2083f84d20402107
:1007bc0083f84e1083f8502083f85120062283f8da
:1007cc005320052283f83420222183f8361000228e
:1007dc0083f8372083f8381083f83920c021c3f808
:1007ec00801083f8c62083f8c72083f8b3207047a5
:0407fc000080004138
:020000040000fa
:1008000010b4124a00211170516091601173104ca4
:10081000104b5c6310489863586940f08130586110
:100820000e48186440f20940208083f845100121e9
:100830001170032283f84d20412283f8462040f6b0
:1008400002721a805df8044b704700bfc00100209f
:10085000b001002000a00041d001002000072000ce
:020000040000fa
:10086000154b01221a601a46936813f0010ffbd151
:10087000114b4ff4c0521a6000225a61596941f479
:10088000606159610221d9635a649a64da641a6515
:100890005a659a6595221a6419711a46936813f07d
:1008a000040ffbd1044b4ff480721a621a4693680e
:0c08b000002bfcd1704700bf006001412c
:020000040000fa
:1008bc000e4a38b5002313600d4a0e4c13600e4ad5
:1008cc000e4d13600e4a13600e4a13600e4a5362ab
:1008dc0013610123936000f0b5f900f0b3f9ac4259
:1008ec0000d338bd54f8043b9847f8e7ec010020de
:1008fc004c0100206c020000480100207002000036
:0c090c00400100204401002050010020a8
:020000040000fa
:100918002de9f04184b080460f460024114e0df1b8
:100928000f052002a6fb003008eb101001950df111
:100938000e0300930df10d033a46ff21c0b2fff7f5
:10094800c1fd9df80f309df80e209df80d10e0b206
:10095800fff714fe01341e2ce3d100f0a1f804b017
:08096800bde8f0818988888850
:020000040000fa
:10097000124bda6822f4e0621204120c42f0bf62f9
:1009800042f40032da60bff35f8f62b60c4ae021b6
:1009900082f81f134ff0004111605a6a42f480221e
:1009a0005a625a6942f010025a615a6a42f400329d
:1009b0005a625a6a42f480325a62704700ed00e08f
:0409c00000e100e072
:020000040000fa
:1009c40010b5054c227832b9044b13b10448aff387
:1009d40000800123237010bd90010020000000005e
:1009e4000000000008b5034b1bb103490348aff3f3
:1009f400008008bd000000009401002000000000f9
:020000040000fa
:100a040070b40d4b5e681b6813f0010f12d00b4bd2
:100a140003fb00f0084b9b6860b10021064c0136d3
:100a2400a2689a4292bf9b1ab51a5b1919441346dd
:100a34008842f5d870bc704710e000e0c0d40100d3
:020000040000fa
:100a440070b50b480b4d4ff6ff76016821b943682a
:100a540013b900f0faf870bd83684268334000f1be
:100a64000c0455f823302046984704eb8000ece74b
:080a74002c070000d80b000064
:020000040000fa
:100a7c0008b500f0d1f8fff78bfefff7fbfb00f099
:100a8c0023f8fff7e7fe00f08df800f045f8fff7cc
:0c0a9c00b1fe00f040f8fff765ff08bd58
:020000040000fa
:100aa80008b50020064b18704ff4a073054a064994
:100ab800fff794fc024a1378002bfcd008bd00bf56
:0c0ac800f0010020283400400000002055
:020000040000fa
:100ad400084b00225a601a46d369002bfcd1054bff
:100ae40009221a730e221a601a46d369002bfcd10c
:080af400704700bf0034004010
:020000040000fa
:100afc0070b50020fff7bcff00f032f80020502644
:100b0c001425441ce4b23146fff700ff2846fff7da
:060b1c0073ff2046f5e71f
:020000040000fa
:020b220070471a
:020000040000fa
:100b2400054a002313609360044951600621116053
:100b3400034a93601360704710e000e0bfd40100e3
:040b4400e0010020ac
:020000040000fa
:100b480008b5064b5868064a12689a6801329a60d6
:100b58001b6813b1014b1b68984708bde0010020d2
:040b680010e000e0b9
:020000040000fa
:100b6c0008b54ff4a0720021044800f039f80022b7
:100b7c000349104600f048f808bd00bf00000020f3
:040b8c00c50b000095
:020000040000fa
:100b900010b50023934206d113f0030018bf0120c3
:0e0ba00000eb930010bdc45ccc540133f2e7af
:020000040000fa
:020bae00fee760
:020000040000fa
:100bb000034b0122c3f8342129221a62704700bf77
:040bc00000e0004110
:020000040000fa
:100bc400012800d07047024b01221a70fae700bfd7
:040bd400f00100200c
:020000040000fa
:100bd800010c0000910b00003f0c00003f0c0000ce
:040be8003f0c0000be
:020000040000fa
:100bec0032b1c9b20244034603f8011b9342fbd154
:040bfc00704700bf7f
:020000040000fa
:100c00000a440023914201d10020704701f8013bc2
:020c1000f8e703
:020000040000fa
:020c1200fee7fb
:020000040000fa
:100c1400024b03eb0010416082607047c00100206a
:020000040000fa
:100c2400024b40f204521a80704700bf004000415a
:020000040000fa
:0a0c340008b50020fff736fd08bdeb
:020000040000fa
:040c3e0000207047db
:020000040000fa
:020c4200fee7cb
:020000040000fa
:020c4400fee7c9
:020000040000fa
:020c4600fee7c7
:020000040000fa
:020c4800fee7c5
:020000040000fa
:020c4a00fee7c3
:020000040000fa
:020c4c007047ef
:020000040000fa
:020c4e007047ed
:020000040000fa
:020c50007047eb
:020000040000fa
:0200000400807a
:044000003912003c35
:020000040000fa
:0200000400807a
:044004008000a82a66
:020000040000fa
:0200000400807a
:04400800ffffffffb8
:00000001FF
