:020000040000fa
:10000000f0ff0320cd040000db0b0000dd0b00003f
:10001000e10b0000e30b0000e50b00000000000016
:10002000000000000000000000000000a70b00001e
:10003000df0b000000000000a70b00008d0a00008d
:10004000a70b0000a70b0000a70b0000a70b0000e8
:10005000a70b0000a70b0000a70b0000a70b0000d8
:10006000a70b0000a70b0000a70b0000a70b0000c8
:10007000a70b0000a70b0000a70b0000a70b0000b8
:10008000a70b0000a70b0000a70b0000a70b0000a8
:10009000a70b0000a70b0000a70b0000a70b000098
:1000a000a70b0000a70b0000a70b0000a70b000088
:1000b000a70b0000a70b0000a70b0000c90b000056
:1000c000a70b0000a70b0000a70b0000a70b000068
:1000d000a70b0000a70b0000a70b0000a70b000058
:1000e000a70b0000a70b00000000000000000000ac
:1000f00000000000a70b0000a70b0000a70b0000ea
:10010000a70b0000a70b0000a70b0000a70b000027
:10011000a70b0000a70b0000a70b0000a70b000017
:10012000a70b0000a70b0000a70b0000a70b000007
:10013000a70b0000a70b0000a70b0000a70b0000f7
:10014000a70b0000a70b0000a70b0000a70b0000e7
:10015000a70b0000a70b000000000000000000003b
:10016000000000000000000000000000000000008f
:100170000000000000000000a70b0000a70b00001b
:10018000a70b0000a70b0000a70b0000a70b0000a7
:1001900000000000a70b0000a70b0000a70b000049
:1001a000a70b0000a70b0000a70b0000a70b000087
:1001b000a70b0000a70b0000a70b0000a70b000077
:1001c000a70b0000a70b0000a70b0000a70b000067
:1001d000a70b0000a70b0000a70b0000a70b000057
:1001e000a70b0000a70b0000a70b0000a70b000047
:1001f000a70b0000a70b0000a70b0000a70b000037
:10020000a70b00000000000000000000a70b00008a
:10021000a70b0000a70b0000a70b0000a70b000016
:10022000a70b0000a70b0000a70b0000a70b000006
:10023000a70b0000a70b0000a70b0000a70b0000f6
:10024000a70b0000a70b0000a70b0000a70b0000e6
:10025000a70b0000a70b0000a70b0000a70b0000d6
:020000040000fa
:10026000f8b500bff8bc08bc9e467047fd0800000a
:10027000f8b500bff8bc08bc9e467047d90800001e
:020000040000fa
:100280004f4b00221a7403f500634e4a9a621a46d5
:10029000536813f0100ffbd14b4b4222c3f884205c
:1002a0001a4600bfd2f8843013f0400ffad0474b03
:1002b00000229a6377225a631a46d36b13f0040f15
:1002c000fbd1424b022283f830201a46d36b13f045
:1002d000020ffbd13d4a136c03f00303032bfad149
:1002e000394b4222c3f888201a4600bfd2f8843026
:1002f00013f0400ffad0354b0022da64344a9a6486
:100300001a46136d13f0040ffbd1304b022283f811
:1003100044201a46136d13f0020ffbd12b4a536d84
:1003200003f00303032bfad12a4b01225a711a4618
:10033000d37813f0010ffbd0234b274a1a621a46d9
:10034000536813f0040ffbd11f4b244a5a621a461c
:10035000536813f0080ffbd11b4b4ff48472da6221
:100360001a46536813f0200ffbd1174b4322c3f8f2
:10037000a0201a46d2f8a03013f0400ffad0124b4a
:100380004122c3f8ac201a46d2f8ac3013f0400f2b
:10039000fad00d4b4022c3f8e4201a46d2f8e430dc
:1003a00013f0400ffad00b4b6ff07f421a6142f20c
:1003b000ff725a610a4a9a614ff41052da6170472b
:1003c0000014004006013000001c004000100040f6
:1003d0003200070000080040070101000701020089
:0403e000d6880100ba
:020000040000fa
:1003e40070b40401354d25442d7b04f1824404f599
:1003f400204494f84e4014f0030f02d1edb2002dc6
:1004040055d1040104f1824505f52045032685f8fc
:100414004e602a4d254401262e73294d2c5b14f47d
:10042400806f19bfc91805eb0014254c04eb0014a8
:1004340061600101224c615a11f4006f27d01a4403
:1004440004eb00118a601e4902018c18895a9bb280
:10045400c1f301210b419bb2638002f1824303f596
:1004640020431a6c42f002021a641a6c12f4fe4f12
:100474001fd193f8463013f0400f1dd111490c6978
:10048400012202fa00f323430b61104612e00d49e6
:10049400498811f4404f04d1094901eb00118a60e5
:1004a400d1e71168064a02eb00129160cbe7002005
:1004b40000e0012070bc70470120fbe7000e002023
:0804c400f00d002000a0004132
:020000040000fa
:1004cc0008b5194b9847194b9847eff3108172b642
:1004dc00174ad2f8883043f47003c2f88830bff35f
:1004ec004f8fbff36f8f01b962b6124a936823f036
:1004fc00010393601346da6812f0010ffbd10d4b28
:10050c0024225a6001229a6000f078fa0a4b23f0f8
:10051c007f03074a9360094b9847094b9847094b4f
:10052c00984700f0f3fafee7e70b0000e70b00003a
:10053c0000ed00e000600041000000003107000009
:08054c00e70b0000e70b0000c3
:020000040000fa
:100554008f283ed8f0b400eb4000c600072006eb1d
:10056400000c1c4faceb0004a4b242fa00f505f0f9
:100574000105002d14bf482524253d550138b0f14f
:10058400ff3fefd1072206f10f07124db81a80b2d0
:1005940041fa02f404f00104002c14bf482424247a
:1005a4002c54013ab2f1ff3ff0d107221736094d1e
:1005b400b11a89b243fa02f000f00100002814bf16
:1005c400482424246c54013ab2f1ff3ff0d1f0bc2a
:0805d400704770470000002091
:020000040000fa
:1005dc0010b582b000230193030103f1824303f5ac
:1005ec00204393f84e30dbb20193019b13f0020fc2
:1005fc000dd0010101f1824202f52042022382f862
:10060c004e30134b0b4400221a73012400e00224d9
:10061c00019b13f0010f0cd0010101f1824202f594
:10062c002042012382f84e30094b0b4400221a73ee
:10063c000224074b03eb00135b6833b1044a02eb53
:10064c00001399685b682046984702b010bd00bf44
:04065c00000e00206c
:020000040000fa
:10066000d00d00201c00000000000000f00d002054
:100670003000000000000000200e00200c000000f0
:1006800000000000300e002001000000000000000b
:1006900000000020800d000000000000ec0d002094
:1006a0000400000000000000800d00205000000049
:1006b000000000002c0e00200400000000000000dc
:1006c00000000000000000006666666666666666fa
:020000040000fa
:1006d0002de9f0410025ff264ff47a77dff84c80b2
:1006e00009e000f075f9384600f016f94ff4804142
:1006f000404600f06efa00242b462a463146e0b20e
:10070000fff728ff0134902cf6d100f061f938464c
:1007100000f002f900242b462a462946e0b2fff7f2
:1007200019ff0134902cf6d1dbe700bf00800041b7
:020000040000fa
:100730000e4a38b5002313600d4a0e4c13600e4a62
:100740000e4d13600e4a13600e4a13600e4a536238
:1007500013610123936000f048fa00f046faac42be
:1007600000d338bd54f8043b9847f8e72c0e00201e
:100770008c0d00206c020000880d0020700200002b
:0c078000800d0020840d0020900d002052
:020000040000fa
:10078c000f4a002313705360936013730d480e4b84
:10079c0058630e499963596941f0813159610c498b
:1007ac00196440f209410180012183f84510117050
:1007bc00032283f84d2040f602721a80704700bf66
:1007cc00000e0020f00d002000a00041100e0020b3
:0407dc0000162000e3
:020000040000fa
:1007e000124bda6822f4e0621204120c42f0bf628b
:1007f00042f40032da60bff35f8f62b60c4ae02148
:1008000082f81f134ff0004111605a6a42f48022af
:100810005a625a6942f010025a615a6a42f400322e
:100820005a625a6a42f480325a62704700ed00e020
:0408300000e100e003
:020000040000fa
:10083400134b4ff480421a604ff480321a61012244
:1008440083f84820402183f84e1083f85020062274
:1008540083f85320052283f83420002283f83720bc
:10086400022183f8381083f83920c021c3f880109e
:1008740083f8c62083f8c72083f8b320704700bfed
:0408840000800041af
:020000040000fa
:10088800124b01221a601a46936813f0010ffbd12c
:100898000e4b4ff480521a6000225a61596941f494
:1008a800606159610221d9635a649a64da641a65ed
:1008b8005a659a6595221a6401221a874ff4807244
:1008c8001a621a469368002bfcd1704700600141f8
:020000040000fa
:1008d80010b5054c227832b9044b13b10448aff374
:1008e80000800123237010bdd00d002000000000ff
:1008f8000000000008b5034b1bb103490348aff3e0
:10090800008008bd00000000d40d00200000000099
:020000040000fa
:1009180070b40d4b5e681b6813f0010f12d00b4bbf
:1009280003fb00f0084b9b6860b10021064c0136c0
:10093800a2689a4292bf9b1ab51a5b1919441346ca
:100948008842f5d870bc704710e000e0c0d40100c0
:020000040000fa
:1009580070b40e4b5e681b6813f0010f13d0c0eb28
:100968000010c2001046094b9b6862b10021074c79
:100978000136a2689a4292bf9b1ab51a5b191944ac
:1009880013468842f5d870bc704700bf10e000e0fd
:020000040000fa
:10099800f8b500f0e7f84b2000f0aef800f094f856
:1009a80014244ff48047074efa253946304600f0a4
:1009b8000cf92846fff7acff013cf6d100f090f89f
:0809c800f8bd00bf00800041f2
:020000040000fa
:1009d00008b50020094b18704ff45863084a0949bc
:1009e000fff700fd00f074f8044a1378002bfcd0e8
:1009f00000f07af86420fff7afff08bd300e00204a
:080a00004460014100000020e8
:020000040000fa
:100a080070b50b480b4d4ff6ff76016821b9436866
:100a180013b900f0e5f870bd83684268334000f10f
:100a28000c0455f823302046984704eb8000ece787
:080a380060060000800b0000c5
:020000040000fa
:100a400008b500f0b9f8fff7f5fefff719fcfff75e
:100a50001bff00f06df800f007f8fff797fe00f0bd
:080a600036f8fff7bdfe08bdea
:020000040000fa
:100a6800054a002313609360044951600621116010
:100a7800034a93601360704710e000e0bfd40100a0
:040a8800200e00201c
:020000040000fa
:100a8c0008b5064b5868064a12689a6801329a6093
:100a9c001b6813b1014b1b68984708bd200e002042
:040aac0010e000e076
:020000040000fa
:100ab00010b50023934206d113f0030018bf0120a4
:0e0ac00000eb930010bdc45ccc540133f2e790
:020000040000fa
:020ace0070476f
:020000040000fa
:100ad000044a136843f002031360936813f0020f93
:080ae000fbd1704700600141e9
:020000040000fa
:100ae800044a136823f002031360936813f0020f9b
:080af800fbd1704700600141d1
:020000040000fa
:100b000020f07f40034b58631a46936813f0100f90
:080b1000fbd1704700600141b8
:020000040000fa
:100b180008b50020fff790ff00f010f800f022f869
:080b2800fff736fffff7d0fdd7
:020000040000fa
:100b3000034b0122c3f8342140f229221a62704784
:040b400000e0004190
:020000040000fa
:100b4400034b00229a601a6842f001021a6070474f
:040b540010e000e0cd
:020000040000fa
:100b5800012800d07047024b01221a70fae700bf43
:040b6800300e00202b
:020000040000fa
:100b6c0008b500220249104600f018f808bd00bf75
:040b7c00590b000011
:020000040000fa
:100b8000950b0000b10a0000d70b0000d70b000046
:040b9000d70b00007f
:020000040000fa
:100b94000a440023914201d10020704701f8013b2f
:020ba400f8e770
:020000040000fa
:020ba600fee768
:020000040000fa
:100ba800024b03eb0010416082607047000e00208a
:020000040000fa
:100bb800024b40f204521a80704700bf00400041c7
:020000040000fa
:0a0bc80008b50020fff706fd08bd88
:020000040000fa
:040bd200c161704746
:020000040000fa
:040bd6000020704744
:020000040000fa
:020bda00fee734
:020000040000fa
:020bdc00fee732
:020000040000fa
:020bde00fee730
:020000040000fa
:020be000fee72e
:020000040000fa
:020be200fee72c
:020000040000fa
:020be400fee72a
:020000040000fa
:020be600704756
:020000040000fa
:020be800704754
:020000040000fa
:020bea00704752
:020000040000fa
:0200000400807a
:044000003912003c35
:020000040000fa
:0200000400807a
:044004008000a82a66
:020000040000fa
:0200000400807a
:04400800ffffffffb8
:00000001FF
